:0600000002004002007F37
:03000B000201B03F
:030013000200EBFD
:100040007581A075200A7530007531007532007514
:100050003300753400753500753600753700753816
:1000600000D2A8D2AAD2A9D2B9C288C28A75800009
:1000700075A000759055D2AF1201E7517E80FEC089
:10008000D0C0E07834753331E6F91202DD20B413C4
:1000900030B4FDE814D4F81533B433EC7533347848
:1000A0003780E520B51330B5FDE804D4F80533B446
:1000B00038D6783475333180CF20B60D30B6FDE6B2
:1000C00004F6B464C3786380BF20B70D30B7FDE693
:1000D000B4000280B314F680AF20B1B130B1FD801E
:1000E00000D0E0D0D0759055517E32C0D0C0E075C0
:1000F0003000753100753200758901758A18758C6C
:10010000FCD28C7590551202911202BB209008759A
:100110003331783402013820920875333278350251
:10012000013820940875333378360201382096D987
:100130007533347837020138C28CB2A37140C2A340
:1001400051DD20B41330B4FDE814D4F81533B433C2
:10015000EF783775333480E820B51330B5FDE80407
:10016000D4F80533B438D9783475333180D220B619
:100170000B30B6FDE604F6B46428802620B70D30B7
:10018000B7FDE6B40002801A14F6801620B00B30DA
:10019000B0FDD28C7590550200F820B1A530B1FDAC
:1001A000800075905551DD715F517ED0E0D0D03226
:1001B000C0D0C0E0758CFC758A18D5202575200A42
:1001C00074012532F532B46419753200E53104F555
:1001D00031B43C0E753100E53004F530B43C0375A4
:1001E0003000D0E0D0D032120219758038C2A0C2DF
:1001F000A17A03D2A2C2A2DAFA758038D2A2C2A230
:1002000075503812023975500112023975500612B4
:10021000023975500E120239227E0F7F1000DFFD69
:10022000DEF922C0E07580FFC2A0D2A1D2A21202E4
:1002300019858050C2A2D0E022C0E0C2A0D2A17530
:1002400080FFD2A212021900E580C2A220E7F0C20C
:10025000A1855080D2A2C2A2D0E022C0E0C2A0D22A
:10026000A17580FFD2A2120219E580C2A220E7F197
:10027000D2A0C2A1855180D2A2C2A2D0E0227550E4
:1002800001120239755006120239755008120239EE
:100290002275500112023975500612023975500C40
:1002A0001202397550801202399003927A107B0045
:1002B000EB93F55112025B0BDAF6227550C4120271
:1002C000399003B2E530717E75513A12025BE53127
:1002D000717E75513A12025BE532717E22B83405A7
:1002E000759057AD34B8350575905DAD35B83605A8
:1002F000759075AD36B837057590D5AD3775500129
:1003000012023975500612023975500C12023975F5
:1003100050801202399003A27A107B00EBBB0B0ACB
:10032000E533F55112025B0BDAF293F55112025BE1
:100330000BDAE99003B27550C7120239ED717E22D3
:10034000C040C041C04275400875414C7542A5D5BA
:1003500042FDD541FAD540F7D040D041D04222C02D
:1003600030C031C03275301375313E753228D53208
:10037000FDD531FAD530F7D032D031D0302275F0FA
:100380000A84D493F55112025BE5F093F551120201
:100390005B222020505245535320425554544F4E17
:1003A000202020202020504C415945522020202040
:0C03B000202030313233343536373839F4
:00000001FF
