:0600000002004002007F37
:03000B000201B43B
:030013000200EBFD
:1000400075816075200A7530007531007532007554
:100050003300753400753500753600753700753816
:1000600000D2A8D2AAD2A9D2B9C288C28A75800009
:1000700075A000759055D2AF1201EB518280FEC081
:10008000D0C0E07834753331E6F91202E120B413C0
:1000900030B4FDE814D4F81533B433EC7533347848
:1000A0003780E520B51330B5FDE804D4F80533B446
:1000B00038D6783475333180CF20B60D30B6FDE6B2
:1000C000B4630280C304F680BF20B70D30B7FDE6ED
:1000D000B4000280B314F680AF20B1B130B1FD801E
:1000E00000D0E0D0D0759055518232C0D0C0E075BC
:1000F0003000753100753200758901758AAE758CD6
:10010000FBD28C7590551202951202BF2090087593
:100110003331783402013820920875333278350251
:10012000013820940875333378360201382096D987
:100130007533347837020138C28C51E1D2A3716330
:10014000C2A351E120B41330B4FDE814D4F8153340
:10015000B433EF783775333480E820B51330B5FD0C
:10016000E804D4F80533B438D9783475333180D203
:1001700020B60D30B6FDE6B46302802A04F6802670
:1001800020B70D30B7FDE6B40002801A14F68016D1
:1001900020B00B30B0FDD28C7590550200F820B124
:1001A000A330B1FD8000D0E0D0D051E17163518225
:1001B00075905532C0D0C0E0758CFB758AAED520E5
:1001C0002575200A74012532F532B46419753200A0
:1001D000E53104F531B43C0E753100E53004F530FD
:1001E000B43C03753000D0E0D0D03212021D7580CF
:1001F00038C2A0C2A17A03D2A2C2A2DAFA758038AC
:10020000D2A2C2A275503812023D75500112023DB1
:1002100075500612023D75500E12023D227E0F7F70
:100220001000DFFDDEF922C0E07580FFC2A0D2A180
:10023000D2A212021D858050C2A2D0E022C0E0C22C
:10024000A0D2A17580FFD2A212021D00E580C2A239
:1002500020E7F0C2A1855080D2A2C2A2D0E022C085
:10026000E0C2A0D2A17580FFD2A212021DE580C219
:10027000A220E7F1D2A0C2A1855180D2A2C2A2D011
:10028000E02275500112023D75500612023D755074
:100290000812023D2275500112023D7550061202ED
:1002A0003D75500C12023D75508012023D90039630
:1002B0007A107B00EB93F55112025F0BDAF6227590
:1002C00050C412023D9003B6E530718275513A1266
:1002D000025FE531718275513A12025FE532718237
:1002E00022B83405759057AD34B8350575905DADBD
:1002F00035B83605759075AD36B837057590D5ADFE
:100300003775500112023D75500612023D75500CB2
:1003100012023D75508012023D9003A67A107B00B8
:10032000EBBB0B0AE533F55112025F0BDAF293F5E2
:100330005112025F0BDAE99003B67550C712023D05
:10034000ED718222C040C041C0427540117541D05C
:10035000754217D542FDD541FAD540F7D040D0417E
:10036000D04222C030C031C03275302275319F7505
:100370003237D532FDD531FAD530F7D032D031D041
:10038000302275F00A84D493F55112025FE5F093A0
:10039000F55112025F2220205052455353204255FE
:1003A00054544F4E202020202020504C415945527B
:1003B0002020202020203031323334353637383970
:00000001FF
