:060000000200400200D2E4
:03000B0002011BD4
:0300130002007B6D
:100040007581A075200A7530007531007532007514
:100050003300753400753500753600753700753816
:10006000007589AAD2A8C288C28AD2A9D2ABD2AF5F
:1000700075800075A00075905580FEC0D0C0E078F6
:1000800034E6F920B40E30B4FDE814D4F8B433F1FA
:10009000783780ED20B50E30B5FDE804D4F8B438DB
:1000A000E0783480DC20B60E30B6FDE604D4F6B439
:1000B00064CF786380CB20B70C30B7FDE6B400C1C5
:1000C00014D4F680BC20B1B930B1FD8000D0E0D0AE
:1000D000D032C0D0C0E0758A18758CFC759055D2AE
:1000E000A9D28C20900B753301783475905702019A
:1000F0005920920B753302783575905D02015920B5
:10010000940B75330378367590750201592096D398
:1001100075330478377590D5020159C0D0C0E075A9
:100120008CFC758A18D28CD5202A75200AE53224D9
:1001300001D4F532B4641D753200E5312401D4F5E3
:1001400031B43C10753100E5302401D4F530B43CB5
:1001500003753000D0E0D0D032C28CB2A37540130A
:1001600075413E754228D542FDD541FAD540F7C2CA
:10017000A320B40E30B4FDE814D4F8B433F17837CA
:1001800080ED20B50E30B5FDE804D4F8B438E07841
:100190003480DC20B60E30B6FDE604D4F6B4642913
:1001A0007863802520B70C30B7FDE6B4001B14D46B
:1001B000F6801620B00B30B0FDD28C759055020041
:1001C000E320B1AB30B1FD8000759055D0E0D0D0C8
:0101D00032FC
:00000001FF
